:100000006EC092C016C223C48FC08EC08DC08CC07B
:100010008BC08AC0F7C388C087C086C085C028034C
:100020005500530042002D004D0049004400490096
:1000300020005300740079006C006F0062006F00B4
:100040006100720064001A03740061006B007400A8
:10005000700072006100680061002E0063007A0089
:100060000403090409026500020100806409040018
:10007000000001010000092401000109000101093B
:1000800004010002010300000724010001410006F1
:1000900024020101000624020202000924030103D4
:1000A0000102010009240302040101010009050104
:1000B0000308000A00000525010101090581030864
:1000C000000A0000052501010312011001000000D3
:1000D000081313E415000101020001001A0611249F
:1000E0001FBECFE5D2E0DEBFCDBF10E0A0E6B0E09E
:1000F000E0E5FCE002C005900D92AE38B107D9F7FB
:1001000020E0AEE8B0E001C01D92AC3DB207E1F7DF
:1001100010E0CFE6D0E003C02197FE0191D5CE36A6
:10012000D107D1F7C8D392C56BCFCF93C62F2091FB
:10013000B10024FF07C03091B20028E823272093A4
:10014000B20003C02AE52093B1002C2FFC01A3EBE1
:10015000B0E081918D9321501216DCF36C2F83EB6C
:1001600090E050D1CC5FC093B100CF910895CF9370
:10017000DF936091C200635067FDA9C08091BF000A
:10018000CCE0D0E0C81BD109CA53DF4F8091BE003C
:10019000803118F4CE0109D394C08D3209F082C0A9
:1001A000683009F08EC083EC8093A6008AE58093C6
:1001B000610010928F008881807619F0CE01E7D21D
:1001C0005EC09A811092AF008981811106C01092A1
:1001D000B0002FEA30E082E04DC0853019F49093F2
:1001E000C30045C0863069F58B81813011F08230C3
:1001F00019F4CE01B8D221C08330F1F4911108C0B6
:1002000080E690E09093C1008093C00084E015C028
:10021000913041F486E490E09093C1008093C00057
:100220008AE10BC0923041F48EE190E09093C100DE
:100230008093C00088E201C080E090E490938F003A
:100240001EC0883069F0893019F49093C5000FC042
:100250008A3049F08B3059F48BE48093B20007C0A8
:1002600025EC30E002C02FEA30E081E003C02FEA45
:1002700030E080E03093C1002093C00009C08F3F80
:1002800039F4988197FD8E8190E890938F0007C094
:100290009F81911104C09E81981708F4892F809343
:1002A00060000FC080918F0087FF0BC0CE017BD212
:1002B0008F3F21F48EE18093610003C08111109281
:1002C00060008091C200181614F41092C200809150
:1002D000610084FF55C0809160008F3F09F450C0D9
:1002E000C82F893008F0C8E08C1B80936000909183
:1002F000A60088E889278093A600CC2309F459C07A
:1003000020918F0027FF08C06C2F87EA90E041D230
:10031000C82F893078F523C08091C0009091C1002A
:1003200026FF0AC0A7EAB0E0FC012C2F34913D93D0
:1003300031962150D9F708C0DC01E7EAF0E02C2F14
:100340003D9131932150E1F72FEF2C0F30E02F5FDB
:100350003F4F820F931F9093C1008093C0006C2F7A
:1003600087EA90E04FD0CC5FCC3041F08FEF8093A4
:10037000600004C08FEF80936000CEE1C093610005
:1003800084E196B3987131F48150D9F71092C3008B
:100390001092BD00C1E08111C0E090918E00C9179C
:1003A00071F0882319F0F89468D17894C0938E0086
:1003B00006C060E087EA90E025D0C4E0D7CFDF91A7
:1003C000CF910895AB9A8BB780628BBFE1EBF0E0E1
:1003D0008BE481838AE580830895A82FB92F80E07C
:1003E00090E041E050EA609530E009C02D9182270D
:1003F0009795879510F084279527305EC8F36F5F37
:10040000A8F30895EADF8D939D930895A6E08827C9
:100410009927AA9569F00197E1F3B499FCCFB49BB1
:10042000FECF81E09927A6B3019611F0A871D9F704
:100430000895CF93CFB7CF93DF93C395B49BE9F7DC
:10044000B49B0BC0B49B09C0B49B07C0B49B05C050
:10045000B49B03C0B49B01C08EC06F93C091BF001A
:10046000DD27CA53DF4F2F9365E5B49B03C02F915F
:100470006F91E6CF0F931F934F9320E040E15F937E
:1004800006B3087104FB27F93F9350E03BE039C005
:10049000187140642F77012F5F5F1EC0406816B34C
:1004A00018712F7752501FC0406406B32F77087120
:1004B000D1F15F5F00C023C0406216B32F7718717F
:1004C00091F15F5F00C025C008711027515012F4F0
:1004D0005D5F0000115027952C3F16B3C8F61871C8
:1004E0000127015027952C3FC8F64227499306B3B0
:1004F000087110274F73115027952C3FA8F6469589
:10050000469516B3187179F00127015027952C3FB5
:1005100098F66B5A60F3315006B3B0F600C010E2A3
:100520001ABF00271CC03B503195C31BD04010E2BE
:100530001ABF0881033C21F10B3411F12091BD0059
:100540001981110F1213EDCF4A81441F093669F149
:100550000D3211F0013E29F74F7009F0042F00937E
:10056000C4003F915F914F911F910F912F916F9117
:10057000CAB7C5FD62CFDF91CF91CFBFCF9118959C
:100580002091C400222369F31091C200112391F538
:10059000343092F13093C2002093BE001091BF001E
:1005A0003BE0311B3093BF0027C00091C2000130F7
:1005B0000CF50AE54F7049F43091610034FD1DC01F
:1005C00000936100C6EAD0E01CC03091B10034FD58
:1005D00014C00093B100C2EBD0E013C0052710E0B7
:1005E00000C0000008BB1AC0052710E0221F1DC074
:1005F00010E021C04AE502C032ED432FC4E1D0E053
:1006000032E017B31861C49A08B317BB58E120E869
:1006100065E320FF052708BB279517951C3FF0F6DB
:100620006695B8F7B1F720FF052708BB2795179502
:100630001C3FD0F62795179517FF052700001C3F94
:1006400008BBB0F629913A9519F7077E1091C300BF
:10065000110FC651D04008BB11F01093BD0010E23D
:100660001ABF006117B3177E402F477E54E05A959A
:10067000F1F708BB17BB48BB74CFDF92EF92FF9234
:100680000F931F93CF93DF9308E010E0C0E0D0E812
:10069000DD2EDC0ED1BEBADE7C018CEEE81688E0E1
:1006A000F8060CF4CD2DD6950150110989F78FEF7E
:1006B0008C0F81BF0C2F10E00F5F1F4F81B790E0B0
:1006C000081719078CF0A2DE8C5E984097FF03C0D4
:1006D0009195819591098E159F0514F4C1B77C0100
:1006E00081B78F5F81BFEACFC1BFDF91CF911F91EB
:1006F0000F91FF90EF90DF9008958F929F92AF92AD
:10070000BF92CF92DF92EF92FF926B017C018091BA
:10071000A2009091A300A091A400B091A5001C1488
:100720001D041E041F04B4F48090A2009090A30046
:10073000A090A400B090A500C818D908EA08FB084A
:10074000C80ED91EEA1EFB1E12DD8091B100D50134
:10075000C401E5CFFF90EF90DF90CF90BF90AF90B6
:100760009F908F900895FC018381813041F489EC42
:1007700090E09093C1008093C00083E1089584E6E7
:1007800090E09093C1008093C00085E6089580E0DA
:100790000895FC0110821182128213821482158244
:1007A000168287E0089581E0089508956DBB9FBB90
:1007B0008EBBE29AE19AE199FECF1CBA08959FBBE5
:1007C0008EBBE09A8DB3089540E050E020E086B102
:1007D000806586B9349BFECF84B195B1BA016A5F5A
:1007E0007F4F6817790714F420E009C06C50710935
:1007F00086179707CCF32F5F243619F0CA01AC0196
:10080000E6CF08951F920F920FB60F9211248F9387
:100810009F93AF93BF938091A2009091A300A0916A
:10082000A400B091A5000196A11DB11D8093A20066
:100830009093A300A093A400B093A500BF91AF91A3
:100840009F918F910F900FBE0F901F9018951F9240
:100850000F920FB60F9211242F933F934F935F93F4
:100860006F937F938F939F93AF93BF93EF93FF9378
:100870007EDC8091B100FF91EF91BF91AF919F918C
:100880008F917F916F915F914F913F912F910F9039
:100890000FBE0F901F901895F894BC9A2FEF80E729
:1008A00092E0215080409040E1F700C00000BC98E9
:1008B00089DD78940895CF93DF9300D000D0CDB731
:1008C000DEB788B3836088BB82E090E078DF811177
:1008D00026C082E08ABD83E083BF8AEF89BD89B7E5
:1008E000806189BF6CED75E080E090E006DF8BE809
:1008F00080BF8CE98EBD89B7806489BF81E087B9EC
:1009000082EC86B99924939458E0D52E60E8C62EDF
:1009100070E9772EEFE78E2E66246A9493C042E644
:10092000C42E40E0D42EE12CF12C5701AA0CBB1CA4
:10093000C50145DF182FC501019641DF212F30E0A9
:10094000382BF601219331936F01FFEFEF1AFF0A65
:1009500024E1E216F10449F7BCCF811112C0809165
:10096000A2009091A300A091A400B091A500809353
:10097000960090939700A0939800B093990090925E
:10098000900080919100B099BDC0811112C08091FA
:10099000A2009091A300A091A400B091A500809323
:1009A000960090939700A0939800B093990090922E
:1009B000910086B1806586B9349BFECF84B195B134
:1009C00020919D0030919E00A9014A5F5F4F48171A
:1009D00059070CF4C2C026503109821793070CF452
:1009E000BCC020919C002F5F20939C0020919C0014
:1009F000283231F410929C0090939B0080939A00CF
:100A000082E6A82E80E0B82E00E010E0F50181918A
:100A100091915F0120919A0030919B00AC014A5F57
:100A20005F4F421753070CF09FC00F5F1F4F0431F9
:100A3000110561F780919A0090919B00873B93404C
:100A40000CF0DAC080919000B19B87CF882309F425
:100A500098CF8091A2009091A300A091A400B091A2
:100A6000A500409196005091970060919800709178
:100A70009900841B950BA60BB70BAC01BD014D5320
:100A80005109610971094B3A53406105710550F4F0
:100A900080918B0090918C000C9790938C008093A8
:100AA0008B002DC0893E9340A105B10540F122E69F
:100AB000A22E20E0B22E00E010E0B099FECF84DE3E
:100AC000843893407CF484B195B1F501918380839F
:100AD00064B17801EE0CFF1CC70168DE65B1C70187
:100AE000019664DE66EE70E080E090E006DE0F5F67
:100AF0001F4FF2E0AF0EB11C04311105F1F6109258
:100B000090003FCF882309F454CF8091A2009091A8
:100B1000A300A091A400B091A50040919200509133
:100B200093006091940070919500841B950BA60B27
:100B3000B70B87399105A105B10560F080918B0055
:100B400090918C000C968038910520F490938C0045
:100B500080938B00109291002CCF10929C00909368
:100B60009E0080939D0042CF0697281739070CF40A
:100B70005CCF80918A0090E08017910709F455CFEF
:100B8000F0909F00FF20A9F08091B10084FD07C084
:100B9000EEDA65E070E080E090E0AFDDF5CFD9827D
:100BA000CA828F2D8F778B831C8264E0CE010196E1
:100BB000BCDAE0908B00F0908C00E00EF11E80918A
:100BC000B10084FD07C0D3DA65E070E080E090E01A
:100BD00094DDF5CFD9827A828E2D8F778B838C82AC
:100BE00064E0CE010196A1DA80918B00800F8093A2
:100BF0009F0000938A0019CF10919F00112309F4E0
:100C000021CF8091B10084FD07C0B1DA65E070E0CA
:100C100080E090E072DDF5CFD982CA821F771B8316
:100C20001C8264E0CE01019680DA10929F006092EF
:100C30008A0008CF81EA90E02FDE80EA90E02CCE97
:100C4000EE0FFF1F0590F491E02D0994F894FFCF6B
:100C5000FF5A00005301FF016502AA02DA02FF02F7
:100C60001B0332034503540361036C0376037F03C4
:0E0C700086038D03930398039D03FF2D000060
:00000001FF
